:020000040800F2
:10000000F0040020D9000008D9130008D31200081A
:1000100000000000000000000000000000000000E0
:10002000000000000000000000000000F1140008C3
:10003000000000000000000021140008F314000874
:10004000EB000008EB000008EB000008EB000008E4
:10005000EB000008EB000008EB000008EB000008D4
:10006000EB000008EB000008EB000008EB000008C4
:10007000EB000008EB00000800000000EB000008A7
:1000800000000000EB00000800000000000000007D
:10009000EB00000800000000EB000008EB00000887
:1000A000EB000008EB000008EB000008EB00000884
:1000B000EB000008EB000008EB000008EB00000874
:1000C0000448854600F0A4F800480047D91E0008FF
:1000D000C046C046F004002004488047044800475A
:1000E000FEE7FEE7FEE7FEE7FEE7FEE76D15000828
:1000F000C100000830B50B46014600202022012433
:1001000009E00D46D5409D4205D31D469540491B4B
:100110002546954040191546521E002DF1DC30BD94
:1001200070B500242546002801DA01244042002948
:1001300001DA01254942FFF7DDFFAC4200D0404221
:10014000002C00D0494270BDF0B51FB40646002017
:1001500082B005464024019100901BE0019922469F
:100160000F46304600F042F8049A059B801A9941E8
:1001700010D310461946224600F028F8361A8F414F
:100180000197224601200021009F00F01FF8381837
:100190004D4100902046641E0028DFDC019B009842
:1001A0002946324607B0F0BDD2B201E00270401CD1
:1001B000491EFBD270470022F6E710B513460A46E7
:1001C00004461946FFF7F0FF204610BD10B5202A5F
:1001D00004DB0146203A9140002010BD91402023CD
:1001E0009C1A0346E3401943904010BD10B5202AE5
:1001F00004DB0846203AD040002110BD0B46D34016
:10020000D0402024A21A91400843194610BD000096
:10021000064C0125064E05E0E36807CC2B430C3C59
:1002200098471034B442F7D3FFF74EFF6820000818
:100230008820000870B5044600F0D0F80546601C20
:1002400002D004480078241800F0C8F8401BA042EF
:10025000FAD370BD00000020FCB500230124A2E009
:1002600027462A469F403A406FD04D68012D05D061
:10027000022D03D0112D01D0122D16D18568032631
:10028000AC465D00AE46AE406546B543AC46CE6872
:100290007546AE4065462E43866046680D79BE437E
:1002A000ED06ED0F9D4035434560C6685F000325B0
:1002B000BD40AE46AE4335468E68BE402E43C66056
:1002C0004E68022E01D0122E14D1DE08B600361868
:1002D0000196366A5D07B446EE0E0F25B5400096CE
:1002E0006646AE43B4460D69009EB54066462E4351
:1002F000019D2E6206687546AE430D79AD07AD0FC0
:10030000BD40354305604D68ED004BD5294D6E6B02
:1003100026436E639E08284DB6007519AC46AD683D
:100320009E07360F0F27B740BD4305273F07B8424A
:1003300001D1002715E0214FB84201D1012710E07B
:100340001F4FB84202D102270BE02BE01D4FB842ED
:1003500001D1032705E01C4FB84201D1052700E079
:100360000627B7402F436546AF60184D2E684F688B
:100370009643FF0300D516432E606E684F68964380
:10038000BF0300D516436E60AE684F689643FF0208
:1003900000D51643AE60EE684F689643BF0200D5A5
:1003A0001643EE605B1C0A681546DA4000D057E73A
:1003B000FCBD00000010024000000140000400509D
:1003C00000080050000C0050001C005000040140C8
:1003D000002A01D0816170478162704701488068BE
:1003E00070470000000000200248816802788918E8
:1003F000816070470000002010B5084800240168A3
:10040000402211430160204600F00AF8002801D084
:10041000012401E000F026F8204610BD0020024033
:1004200070B504460D4D7D202978C000FFF762FEAF
:1004300001460B480068FFF75DFE00F067FE0028EC
:1004400009D1042C07D200222146401E00F016F8E4
:1004500000206C6070BD012070BD00000000002015
:100460000C0000200448416B012211434163816B61
:1004700002041143816370470010024010B500F080
:10048000ADFF10BDF8B504460068614D810601D48A
:1004900000057DD55E4E0027403EB06BC00004D401
:1004A000B06B31040843B06301275A480168C9059D
:1004B00011D40168821511430160FFF78FFF00908E
:1004C00005E0FFF78BFF0099401A642844D8514893
:1004D0000068C005F5D53168032000056268014059
:1004E0001040884205D10323A0681B0518408842AC
:1004F00008D09003800F032804D13068800301D511
:100500000120F8BD286903210904084029D00A40C8
:10051000824202D02278920606D4A2680A40824221
:100520001FD0208800051CD528692A69884301212D
:10053000C9040A432A612A698A432A612861C005DD
:100540000FD5FFF74BFF009008E0FFF747FF00993A
:10055000411A3148814201D90320F8BD286980053C
:10056000F3D561688803800F032805D13268000540
:10057000824301400A433260286903226168120401
:10058000114008432861002F06D0B16B012000E024
:1005900002E000078143B1632078C00705D0E86816
:1005A000E168800880000843E8602078800705D56E
:1005B000E8680C21884321690843E86020784007F7
:1005C00006D5E86803218902884361690843E86029
:1005D0002078000706D5E868032109038843A1694C
:1005E0000843E8602078400606D5E86801218906BE
:1005F0008843216A0843E8602078000606D5E86849
:10060000032189048843E1690843E8600020F8BDBC
:10061000401002400070004088130000F8B50E46FC
:1006200005007DD053480068C007C00FB0420AD211
:100630005048016849084900314301600068C0071B
:10064000C00FB04271D128784B4C800705D5E068C7
:10065000F0218843A9680843E0602878C00752D099
:100660006868022817D0032818D02168012818D0FC
:100670008905002959DAE168890889000143E160A8
:10068000FFF7ACFE69680746022912D003291CD087
:10069000012926D033E021688903EAE7216889012E
:1006A000E7E74907E5E7FFF799FEC11B33488142B9
:1006B00023D8E0680007800F0228F4D123E0FFF779
:1006C0008DFEC11B2D48814217D8E0680007800FBE
:1006D0000328F4D117E0FFF781FEC11B27488142B0
:1006E0000BD8E0680007800F0128F4D10BE0FFF77A
:1006F00075FEC11B2148814201D90320F8BDE06885
:100700000007800FF3D11B480168C907C90FB14228
:100710000DD901684908490031430160006800E0D3
:1007200003E0C007C00FB04201D00120F8BD287817
:10073000400706D5E068072109028843E9680843B5
:10074000E0602878000707D5E0680721C9028843E0
:100750002969C9000843E06000F036F8E168084AFA
:100760000906090F515CC840064908600020FFF7E0
:1007700057FEF8BD00200240001002408813000020
:10078000442000080C000020044805490068C9689E
:10079000044A4905490F515CC84070470C000020CD
:1007A000001002405D200008044805490068C9683F
:1007B000044A8904490F515CC84070470C0000206E
:1007C000001002405D20000810B5184AD1680C20C6
:1007D000084004280BD0082810D00C2810D05068EE
:1007E0000004410F0120C003491C884010BD10685F
:1007F000C00601D50E4810BD0E4810BD0E4810BDF4
:1008000088020E4B000F185C0902D368890F491C3F
:10081000DB0301D5084A05E01268D20601D5044A77
:1008200000E0044A5043FFF765FC10BD0010024091
:1008300000093D000024F40000127A005420000852
:10084000FEB505007ED0FE4CE7680C20E668074048
:100850000120000406402878C00747D0082F05D0A3
:100860000C2F0AD101200004864206D120688003A3
:100870003CD568680028E5D038E0012069680004AC
:10088000814203D121680143216011E00523012247
:100890001B0492049942216802D111432160F1E7BF
:1008A00081432160216801400091206890432060CD
:1008B000686800280DD0FFF791FD009005E0FFF774
:1008C0008DFD0099401A64287AD820688003F6D5F7
:1008D0000CE0FFF783FD009005E0FFF77FFD009936
:1008E000401A6428F0D820688003F6D4287880075E
:1008F00055D50923E868042F0DD00C2F01D1002E07
:1009000009D000283BD02168994301432160FFF7BB
:1009100065FD064627E02168490701D5002891D0EA
:1009200061681F22120291432A6912021143616019
:100930002168994301432160FFF746FFE1680906FA
:100940000A0F00E0BBE1BF49895CC840BE490860AE
:100950000020FFF765FD002872D120E0FFF73EFD83
:10096000801B0228B0D820684007F7D560681F2197
:100970000902884329690902084360600FE0206882
:10098000400840002060FFF729FD064604E0FFF71D
:1009900025FD801B022897D820684007F7D42878C7
:1009A000C0065FD5002F0CD0E869002849D0206828
:1009B000FF21013108432060FFF710FD06462DE0BE
:1009C000E4E02068800502D5E8690028A7D06068C7
:1009D000072149038843696A084360606068298C7D
:1009E0000002000A090608436060686A410B0120A2
:1009F000C003491C8840E16809060A0F9149895CD7
:100A0000C840914908600020FFF70AFD002817D16F
:100A100028E0FFF7E3FC801B0228A3D820688005AC
:100A2000F7D56068072149038843696A0843606015
:100A30006068298C0002000A09060843606011E022
:100A400023E12168FF20013081432160FFF7C6FCCC
:100A5000064604E0FFF7C2FC801B02289BD82068F2
:100A60008005F7D42878794E000724D568690028D6
:100A7000306910D0012108433061FFF7AFFC0090CE
:100A800005E0FFF7ABFC0099401A02287ED83069D8
:100A90008007F6D50FE0400840003061FFF79EFC6C
:100AA000009005E0FFF79AFC0099401A02286DD8E3
:100AB00030698007F6D42878400764D5002002907A
:100AC000A06BC00006D4A06B012109070843A063F6
:100AD000012002905E480168C90511D401688215A1
:100AE00011430160FFF77AFC009005E0FFF776FC08
:100AF0000099401A642849D855480068C005F5D5C2
:100B0000FF20AA680130824203D13169014331617B
:100B100011E001218902002A07D005231B029A4215
:100B200003D132690A433261EFE7326982433261AD
:100B3000306988433061A86800280ED0FFF74EFC6A
:100B4000009006E0FFF74AFC0099411A41488142B3
:100B50001CD830698005F5D50DE0FFF73FFC00900B
:100B600006E0FFF73BFC0099411A3A4881420DD854
:100B700030698005F5D40298002804D0A16B0120CB
:100B800000078143A1632878800600E07CE02ED531
:100B90003148A9694314002916D0A26801210A43EB
:100BA000A260626B0A436263016A19430162FFF744
:100BB00015FC064604E0FFF711FC801B022863D8F1
:100BC000A0688007F7D512E0A16849084900A16034
:100BD000016A99430162FFF701FC064604E0FFF752
:100BE000FDFB801B02284FD8A0688007F7D4A86AB5
:100BF000002866D00C2F4DD001263606022820682A
:100C000005D0B0432060FFF7E9FB05463EE0B04366
:100C10002060FFF7E3FB074604E0FFF7DFFBC01BA4
:100C2000022831D820688001F7D4296BE86AE2688D
:100C30000843696BFD231B049A43114308430DE0ED
:100C400000100240442000080C0000204010024028
:100C5000007000408813000000000140E060206840
:100C600030432060FFF7BAFB054604E0FFF7B6FB10
:100C7000401B022808D820688001F7D521E0FFF743
:100C8000ADFB401B022801D90320FEBD2068800176
:100C9000F5D416E00128F8D0E06801210904EA6AD9
:100CA000014091420BD10F2189042A6B01409142EE
:100CB00005D1032189050840696B884201D00120D4
:100CC000FEBD0020FEBD70B5040007D000262546FD
:100CD0004035A662687C002802D005E0012070BD86
:100CE0002E74204600F030F80220687420680168F5
:100CF000402291430160A168606822690843E1686D
:100D000011430843616901220843A169520211405D
:100D10000843E1690843216A0843A16A084321683E
:100D20000860A0690421000C0840616A084321683A
:100D300048602068C16992009143C16166650120E5
:100D40006874002070BD000070B586B004461421A0
:100D50006846FFF730FA16492068884226D11548C0
:100D6000816B0122920311438163C26A04210A4309
:100D7000C262C26A0A400592C16A02242143C1626A
:100D8000C06A0025204005900C200326694671C1E9
:100D9000694609480494FFF75FFA6002694671C129
:100DA0000520049069460548FFF756FA06B070BD65
:100DB00000380040001002400008005000040050BD
:100DC000FFB5054604464035287C002781B016460D
:100DD000012809D001202874FFF700FB0090687CEF
:100DE000012804D0022793E0022005B0F0BD02984C
:100DF000002870D0002E6ED003206874002060653B
:100E000002992163A686E686A063A087E0876064D6
:100E100020640121A068C903884205D120680168C7
:100E2000012292031143016020680168490603D43E
:100E300001684022114301600121E068C902884233
:100E4000606826D1002801D0012E1ED1206B2168B8
:100E50000088C86006E020688168890709D5216B91
:100E60000988C160206B801C2063E08E401EE086F4
:100E70000BE0FFF7B3FA0099411A0498814202D3BC
:100E8000401C02D03AE0002838D0E08E0028E2D1A1
:100E900027E0002801D0012E20D1206B21680078A6
:100EA000087306E020688168890709D5216B0978F5
:100EB0000173206B401C2063E08E401EE0860DE035
:100EC000FFF78CFA01460098091A0498814203D36F
:100ED000401C03D012E01AE000280FD0E08E00285A
:100EE000E0D12046009A049900F09BFA002801D036
:100EF00020206065A068002802D005E0032707E0F5
:100F00002068C16880680090606D002800D00127CB
:100F10000120687400202874384666E7FFB504464F
:100F200083B0012001900020264640360090307C9E
:100F30000C9F1D4601280FD001203074FFF74EFA98
:100F40000290707C616801280DD0CA1FFD3A08D15B
:100F5000A168002905D102E0022007B0F0BD0428F5
:100F600001D00220C3E00498002828D0059800286A
:100F700025D0002D23D0707C042801D0052070746A
:100F8000002060650599A163E587A5870499216321
:100F9000E586A5862064606420680168490603D45C
:100FA00001684022114301600121E068C9028842C2
:100FB000606848D1002804D0012D02D03CE0012017
:100FC00095E0206B21680088C860206B801C20633E
:100FD000E08E401EE0862FE020688168890710D5EA
:100FE000E18E00290DD0019901290AD1216B0988D0
:100FF000C160206B801C2063E08E401EE0860020D4
:10100000019020688168C9070DD0E18F00290AD0BE
:10101000C068A16B0880A06B801CA063E08F401E9D
:10102000E08701200190FFF7D9F901460298081ADC
:10103000B84201D3781C59D1E08E0028CCD1E08F82
:101040000028C9D146E0002801D0012D3CD1206BF9
:10105000216800780873206B401C2063E08E401EDE
:10106000E08631E020688168890710D5E18E00298B
:101070000DD0019901290AD1216B09780173206BE8
:10108000401C2063E08E401EE08600200190206816
:101090008168C9070DD0E18F00290AD0C068A16B13
:1010A0000870A06B401CA063E08F401EE087012009
:1010B0000190FFF793F90299401AB84202D3781CC5
:1010C00002D013E0002F11D0E08E0028CAD1E08FAB
:1010D0000028C7D139462046029A00F0A2F900281C
:1010E00007D0012000902020606509E003200090D7
:1010F00006E0A068002803D12068C16880680190DC
:101100000120707400203074009826E7094910B55A
:10111000401E884201D9012010BD074C60610321A7
:10112000081F00F05BF90020A0610720206100206B
:1011300010BD0000FFFFFF0000E000E010B504005C
:1011400003D0606F002802D007E0012010BD00210D
:1011500070200155204600F027F8242060672068A1
:101160000168490849000160204600F0BFFA0128E3
:10117000ECD0606A002802D0204600F021FA2068F6
:1011800041680922D20291434160206881682A2285
:10119000914381602068016801221143016020466B
:1011A00000F074FA10BD000010B586B0044614219A
:1011B0006846FFF700F81149206888421BD11048A3
:1011C000816B0122520411438163C16A01221143E0
:1011D000C162C06A6946104005900C200090022050
:1011E0000190002002900320039004200490052029
:1011F0000007FFF731F806B010BD000000440040C2
:1012000000100240FFB50446406F83B017460D46FC
:1012100020285CD1002D0AD0002F08D0A168C00181
:10122000814207D12069002804D1E80702D00120BB
:1012300007B0F0BD204660300290007C012846D007
:101240000298012101740020E06721206067FFF708
:10125000C5F8264640360190378277820120A16882
:101260000003814202D12069002802D02F460025C8
:1012700011E000270FE000228021204600F04AFB09
:10128000002815D1002F15D02168387888627F1C7E
:10129000708A401E7082708A019B00280698009018
:1012A000E9D100224021204600F034FB002808D07C
:1012B0000320BDE728882168C005C00D8862AD1CE9
:1012C000E6E720206067029900200874B0E702205A
:1012D000AEE7FEE7F0B587B014216846FEF76BFF76
:1012E0001F48C26A04210A43C262C26A0A400592C8
:1012F000C16A01252943C162C16A29400591C26AB8
:1013000002210A43C262C06A164F084005900022BB
:1013100050213846FFF75CF8AE03002231461248F0
:10132000FFF756F85020002400900294694601957A
:1013300003943846FEF790FF202000900B48019060
:10134000694602943846FEF787FF029469460648CC
:10135000009601950394FEF77FFF07B0F0BD0000F3
:10136000001002400008005000040050000011105E
:1013700010B50C480A490160FF2105314160002188
:101380008160C16001614161C1610122016252025B
:101390004162826181620721C162FFF794FC10BD46
:1013A000003800401400002010B50A4808490160C8
:1013B000E1214902416000218160C16001618161D8
:1013C000C1610C22016242614162FFF7B7FE10BDAC
:1013D000004400406C000020704700008307FF229B
:1013E000DB0E9A408907090E994000280BDA0007A6
:1013F000000F0838830808489B001818C3699343F6
:101400000B43C3617047830804489B001B1818688E
:10141000904308431860704700ED00E000E400E0EE
:10142000704738B504464068FF23053320259842AD
:1014300004D100920B460022802107E05120005D7C
:1014400005280DD100920B4600220121204600F014
:1014500009F8002804D0606D28436065032038BD7A
:10146000002038BDF8B51D4617460E46044609E073
:10147000681C07D0FEF7B2FF0699401AA8420BD2AB
:10148000002D09D020688168304688432ED0002086
:10149000B842EDD10020F8BD20684168E0229143B8
:1014A00041606068C11FFD390CD10121A068C903EA
:1014B000884202D04911884204D120680168402244
:1014C000914301600120A16A4003814207D1216854
:1014D0000A6882430A6021680A6802430A600120A0
:1014E00040346074002020740320F8BD0120CFE751
:1014F000704710B5FEF778FF10BD000010B59CB026
:1015000038216846FEF757FE142117A8FEF753FE50
:1015100024210EA8FEF74FFE134801680322D202D1
:101520009143C21489180160102000900120079097
:10153000052000244003099008940A946846FFF7A8
:101540007FF90F201790189419941A9400211B9476
:1015500017A8FFF763F802200E9012940EA8FEF76A
:1015600091FF1CB010BD00000070004010480168E1
:10157000821511430160C1680E4A1140C1600168C3
:101580000D4A114001608168490849008160016885
:101590000122920491430160C168FD22120491432B
:1015A000C160002101610549C003886070470000E7
:1015B000001002400C40FF88F6FFF6FE00ED00E050
:1015C00010B5818CC90707D001684A6801235B0404
:1015D0009A43836A1A434A60818C890707D5016858
:1015E0004A6801231B049A43C36A1A434A60818CE8
:1015F000490707D501684A6801239B049A43036B96
:101600001A434A60818C090707D501684A6801239B
:10161000DB039A43436B1A434A60818CC90607D5A2
:101620000268916801231B039943836B19439160FE
:10163000818C890607D501688A6801235B039A4378
:10164000C36B1A438A60818C490612D503685A68B5
:1016500001210905046C8A4322435A60026C8A42C4
:1016600007D10268516803235B059943436C194312
:101670005160818C090607D501684A680123DB04A3
:10168000806C9A4302434A6010BD0000F8B5002602
:101690000446C667FEF7A2FE054620680068124FA2
:1016A000000709D501212B46002249052046009755
:1016B00000F030F900280DD12068006840070BD5F4
:1016C00001212B46002289052046009700F022F9CF
:1016D000002801D00320F8BD20206067A067603497
:1016E00026740020F8BD0000FFFFFF01F8B5044696
:1016F0002669A268E76932436669102000253E43E7
:101700002368324378491E68784F3E4016431E6076
:1017100023685A6803263603B243E66832435A60A8
:101720002368A2698B4201D0266A32439E680B2748
:101730003F02BE4316439E606D4E23686D4AB3421E
:101740000CD1D2689207920F06D0012A38D0022A13
:1017500034D0032A20D11EE001201DE0664EB342A2
:101760000AD1D2680C26324026D0042A28D0082A72
:1017700024D00C2A10D10EE08B420DD1D668032262
:101780009202164018D001229202B61A18D0B61A48
:1017900014D0964200D10820564A0126403A574FAD
:1017A000F6038B4236D100280CD002280DD0042835
:1017B00012D008281FD11CE00020EDE70220EBE743
:1017C0000420E9E7FEF7E0FF08E01068C00601D555
:1017D000384605E04A4803E0FEF7F6FF002873D0DC
:1017E000626851005118814205D81103814202D329
:1017F00003E03046F4E7012566E0010E06025008DA
:10180000002330185941FEF79FFC03210902411AB9
:101810003C4A55E0E169B14232D1030000F0BCF826
:1018200009070A0D06250606062B0600E3E7FEF764
:10183000ABFF1CE0FEF7B8FF19E010686168C00656
:1018400002D54808304A01E0304A48088018FEF7BF
:1018500051FC80B201462E4A10399142CBD8511C1E
:1018600001400007400F08432CE0FEF7ADFF616820
:1018700040004A08EAE76168012248081204E5E7E7
:10188000030000F089F809070A0D06260606062C53
:101890000600B0E7FEF778FF1DE0FEF785FF1AE0CF
:1018A00010686168C00602D54808C01902E01448F3
:1018B0004A081018FEF71EFC80B20146144A10397F
:1018C000914298D82168C86000202066606628464A
:1018D000F8BDFEF779FF61684A088018EAE7616899
:1018E00048088019E6E7000000480040F369FFEF70
:1018F00000380140401002400044004000093D0013
:101900000024F400FFFC0F0000127A000048E801F8
:10191000EFFF0000FFB581B017460E4604460A9D52
:1019200009E0681C07D0FEF759FD0499401AA84247
:101930000CD8002D0AD02068C1693046884318D0E1
:101940000020B842EDD0002005B0F0BD206801684D
:10195000FF22A13291430160206881684908490053
:10196000816020206067A06700206034207403201D
:10197000EAE70120E5E700000FB410B503A9044B26
:10198000044A029800F024F810BC08BC04B01847C0
:10199000A51C00081000002030B47446641E257891
:1019A000641CAB4200D21D46635D5B00E31830BC93
:1019B000184702E008C8121F08C1002AFAD1704770
:1019C0007047002001E001C1121F002AFBD17047BF
:1019D000FFB58FB00F460446002606E025280AD042
:1019E000129A11999047641C761C20780028F5D132
:1019F000304613B0F0BD002501219F4A009500E05C
:101A00000543641C23780846203B98401042F7D1D8
:101A100020782E2815D1042005436078641C2A28DC
:101A20000AD101CF641C00900BE000990A225143B7
:101A300030394018641C009020780146303909295B
:101A4000F3D920786C280ED004DC4C2813D06A28F7
:101A500012D104E074280ED07A280DD10BE00120B9
:101A60004005054307E00121090562780D438242E4
:101A700001D16D18641C641C2078692849D008DCE9
:101A80000028B5D058286CD063280FD0642808D11E
:101A90003FE070286AD0732811D075285FD078286D
:101AA0005FD0129A11999047761CE3E03878694626
:101AB00008720020487202A80190012003E03868F3
:101AC00001900020C0433F1D69070CD5002500E0B0
:101AD0006D1C00998D420FDA8542F9DB0199495D51
:101AE0000029F5D108E0002500E06D1C8542FCDBF3
:101AF0000199495D0029F8D1761907E0019801990B
:101B00000078491C0191129A119990476D1EF5D2E7
:101B1000B0E00A20029000216802400F03910228E1
:101B20000CD001CFC117844600290DDA60460A4661
:101B300040420021914184462D2008E0FF1DFF080E
:101B4000FF0003CF8446EFE7280504D52B206A4623
:101B5000107401203DE0E8073BD02020F7E70A2081
:101B600000E0102000210391029007E01020029075
:101B70000021042005430820039100906802400FD3
:101B8000022811D001CF0021844600200D902807A3
:101B900020D52078864670280CD0029A1020039B0E
:101BA00042401A430CD015E0FF1DFF08FF0003CF91
:101BB0008446EAE740206A46107401200D900CE04C
:101BC0006046084306D030206A4610747046507450
:101BD00002200D902078582804D028A001900DA84C
:101BE0000E900DE02AA0F9E76046039B029AFEF7EB
:101BF000ABFA019B84469B5C0E9A521E0E921370A8
:101C000060460843F0D10E9805A9081A20300190CB
:101C1000680701D40120009000990198814201DDFC
:101C2000081A00E000200025009006E004A8129A9F
:101C3000405D119990476D1C761C0D988542F5DB2F
:101C400004E0129A302011999047761C0099481EA2
:101C500000900029F5DC08E00E980E990078491CE8
:101C60000E91129A11999047761C0199481E019085
:101C70000029F1DC641CB8E6092801003031323358
:101C800034353637383961626364656600000000B8
:101C900030313233343536373839414243444546A2
:101CA0000000000013B5044B012269460348FFF70A
:101CB000A9FA00981CBD0000FFFF00006C00002086
:101CC00070B50446059E049D06C4E381012065604D
:101CD000A0600020207360737D20C0002060083C5D
:101CE000204600F0F3F80146122804D019A0FFF7AF
:101CF00043FE042070BD204600F044F8204600F06A
:101D000041F82A463346204600F052F80721204683
:101D100000F080F80A21204600F06EF8204600F01E
:101D20003BF80C21204600F013F90321084302463A
:101D30000C21204600F06DF904222621204600F0F7
:101D400068F91121204600F090F8204600F01FF8B5
:101D5000002070BD476F742077726F6E67207261CC
:101D600064696F2076657273696F6E2030782578AC
:101D70002C20657870656374656420307831320D8D
:101D80000A00000010B5002100F03CF910BD10B5AC
:101D9000012100F037F910BD10B504461D2100F0F7
:101DA000D7F8420852001D21204600F032F910BD3C
:101DB00070B50546D904500B0143D0040D4A0023E9
:101DC000FEF7C2F904460904000C0843C2B206211A
:101DD000284600F01EF9FF21204609020840020AA9
:101DE0000721284600F015F9E2B20821284600F044
:101DF00010F970BD0048E80170B50C460A0A0546A6
:101E0000202100F006F92207120F2121284600F0B8
:101E100000F970BD70B50C460546062901D20624AE
:101E20001DE00C2C01D90C2401E0062C17D0C32294
:101E3000312100F0EEF80A223721284600F0E9F8B7
:101E40001E21284600F084F821010143CAB21E2158
:101E5000284600F0DEF8284600F0BBF870BDC52229
:101E6000312100F0D6F80C22E6E770B5054600698E
:101E70000C46002803D0142C07D914240BE00F2C97
:101E800000D90F24224670201AE0022C01D202242D
:101E90000AE0112C08D9E41EE4B287224D2128461D
:101EA00000F0B7F88C2105E084224D21284600F08F
:101EB000B0F86121284600F06CF8A41EE2B2802040
:101EC00002430921284600F0A4F870BD10B5422154
:101ED00000F03EF810BD000088B0FEF78DFAFFF765
:101EE0000DFBFFF7F7F9FFF743FAFFF75DFA0F4C29
:101EF000012210212046FEF76BFA002240212046E5
:101F0000FEF766FA0AA0FFF737FD01240D4DA40382
:101F10000D4800210191009023462A460B4902A852
:101F2000FFF7CEFE1420FEF785F9F1E70008005018
:101F3000555341525420546573743A204F6E0D0A24
:101F40000000000000040050C0CA893614000020C0
:101F500013B582B00446002168460171007B00225F
:101F60004106490E68460173E18A6068FEF730FA5F
:101F700032200090012301AA03A92068FEF7CEFFBA
:101F8000E18A01226068FEF723FA6846007904B00E
:101F900010BD10B50A4604462D2901D22D2205E0B8
:101FA000F02A01D9F02207E0822A05D21046052145
:101FB0002D38FEF7B5F804E010460A211E30FEF772
:101FC00099F8C2B2202002430B21204600F021F8EC
:101FD00010BD70B506461D21FFF7BAFF0409E517CD
:101FE0001E213046FFF7B4FF000904220B2804D35A
:101FF000072044402C4300D10C222621304600F01B
:1020000008F870BD802210B50A43012100F001F8E4
:1020100010BD38B5044680200143100208436946CC
:102020000880E18A00226068FEF7D2F90222694640
:10203000A3682068FEF7C4FEE18A01226068FEF70B
:10204000C7F938BD000000000000000001020304D1
:1020500006070809030406080C10182030000000C9
:102060000001020304000000882000080000002096
:1020700014000000B21900089C2000081400002081
:10208000DC040000C2190008010000000400000088
:0C20900000000000000020000000000024
:04000005080000C12E
:00000001FF
